:020000040000FA
:108000002064002071810000798100007B810000E4
:108010007D8100007F810000818100000000000060
:10802000000000000000000000000000D9800000F7
:1080300085810000000000001D81000011D90000B2
:1080400085C3000079BC000099BC00008B81000052
:10805000C1CF00008B8100008B810000D1CF0000D8
:108060008B810000D9C00000E3C00000EDC000001B
:10807000F7C000008B8100008B810000D9BC00009C
:10808000F9BC00008B8100008B810000E1CF000073
:108090008B8100008B8100008B8100008B810000B0
:1080A0008B8100008B8100008B8100008B810000A0
:1080B000B9BC00008B8100008B8100008B81000027
:1080C0008B810000DFF80CD000F0BAF800480047C0
:1080D00039C4000020640020224B19680868B0E809
:1080E000F00F80F30988BFF36F8F4FF0000080F32B
:1080F00011884EF00D0E7047000000000648006821
:10810000006880F3088862B661B6BFF34F8FBFF393
:108110006F8F00DF00BF00BF08ED00E0EFF30980C4
:10812000BFF36F8F0F4B1A6820E9F00F106008B58E
:108130004FF0BF0080F31188BFF34F8FBFF36F8FF5
:1081400005F09CFB4FF0000080F31188BDE808406B
:1081500019680868B0E8F00F80F30988BFF36F8FE3
:10816000704700BF58000020EFF305807047000003
:108170000648804706480047FEE7FEE7FEE7FEE7C1
:10818000FEE7FEE7FEE7FEE7FEE7FEE771B7000069
:10819000C580000040EA01039B0703D009E008C93D
:1081A000121F08C0042AFAD203E011F8013B00F8BC
:1081B000013B521EF9D27047D2B201E000F8012B08
:1081C000491EFBD270470022F6E710B513460A4657
:1081D00004461946FFF7F0FF204610BD2DE9F05F79
:1081E0000546002092469B46884606468146402426
:1081F0001BE0284641464746224600F042F85346D7
:108200005A46C01A914110D311461846224600F032
:1082100029F82D1A67EB01084F462246012000215C
:1082200000F020F817EB00094E41201EA4F10104D4
:10823000DFDC484631462A464346BDE8F09F000051
:10824000064C074D06E0E06840F0010394E80700A3
:1082500098471034AC42F6D3FFF738FF70E30000C4
:1082600090E30000202A04DB203A00FA02F100200B
:1082700070479140C2F1200320FA03F31943904064
:108280007047202A04DB203A21FA02F000217047CF
:1082900021FA02F3D040C2F120029140084319466E
:1082A000704700001FB50446002002900190009026
:1082B000022C02DD012004B010BD4FF08140406867
:1082C00020F003004FF0814148600846406820F4E8
:1082D00080704860002C72D0012C71D1A8480068D1
:1082E00020F03000A649C439C1F8C4000846D0F8CF
:1082F000C40020F40070C1F8C4004FF08140406811
:1083000020F400704FF0814148609D48C438D0F897
:10831000C40020F480009A49C439C1F8C400002088
:1083200002906BE04FF08140406840F480704FF065
:10833000814148600020039003E000BF0398401C87
:1083400003900398B0F5C86FF7D38D4808380068DC
:10835000C0F30170012809D14FF08140406820F03E
:108360000300C01C4FF0814148604AE0844808384F
:108370000068C0F30170032823D1814808380068E1
:10838000C0F3026007281CDA7D4808380068C0F393
:10839000026001900198401C7949C439D1F8C41099
:1083A00060F305117648C438C0F8C41074480068FA
:1083B00020F4007000F50070714908601BE0B5E022
:1083C00020E04FF08140406820F480704FF0814100
:1083D00048600020039003E000BF0398401C039016
:1083E0000398B0F5C87FF7D302F0C2FF0090009861
:1083F000022800D105E00298401C02900298322821
:1084000090D393E0022CFCD15D48006820F030004E
:108410005B49C439C1F8C4000846D0F8C40020F450
:108420000070C1F8C4004FF08140406840F4007013
:108430004FF0814148605248006820F4800000F508
:1084400080004F49C439C1F8C4000020029069E09F
:108450004FF08140406840F480704FF081414860A7
:108460000020039003E000BF0398401C0390039892
:10847000B0F5C86FF7D3424808380068C0F3017000
:10848000012809D14FF08140406820F00300C01C52
:108490004FF08141486048E0394808380068C0F32F
:1084A0000170032821D1364808380068C0F3026003
:1084B00007281ADA324808380068C0F302600190D1
:1084C0000198401C2E49C439D1F8C41060F305113D
:1084D0002B48C438C0F8C4102948006820F4007044
:1084E00000F500702649086019E04FF081404068AF
:1084F00020F480704FF0814148600020039003E039
:1085000000BF0398401C03900398B0F5C87FF7D3D1
:1085100002F02EFF00900098022800D105E002989A
:10852000401C02900298322892D300BF0298322851
:108530001DD10098D8B94FF08140406840F4807058
:108540004FF0814148600020039003E000BF039892
:10855000401C03900398B0F5C86FF7D34FF08140EB
:10856000406820F00300C01C4FF08141486003F0D8
:108570006DFE03F0D1F800F019F800989BE60000BA
:10858000C400204008B5042269464FF4966003F009
:1085900053F89DF8000020F002008DF8000004223E
:1085A00069464FF4966003F075F808BD00B500F019
:1085B000FDF920B1012809D0022815D10DE00C48A1
:1085C0000C4908600C480D4908600EE00C48094948
:1085D00008600C480949086007E00B480549086035
:1085E0000A480649086000E000BF00BF00BD000067
:1085F000798700004C000020118600005000002008
:10860000BD8700006D86000021880000E58600001F
:1086100001B524E00098401E009040F2E730124976
:10862000096888470098D0B100BF00BF00BF00BFF5
:1086300000BF00BF00BF00BF00BF00BF00BF00BF42
:1086400000BF00BF00BF00BF00BF00BF00BF00BF32
:1086500000BF00BF00BF00BF00BF00BF00BF009849
:108660000028D7D108BD00004C00002001B533E040
:108670000098401E009040F2E73019490968884789
:1086800000BF00BF00BF00BF0098002824D000BF7B
:1086900000BF00BF00BF00BF00BF00BF00BF00BFE2
:1086A00000BF00BF00BF00BF00BF00BF00BF00BFD2
:1086B00000BF00BF00BF00BF00BF00BF00BF00BFC2
:1086C00000BF00BF00BF00BF00BF00BF00BF00BFB2
:1086D00000BF00BF00BF00BF00980028C8D108BD80
:1086E0004C00002001B541E00098401E009040F28F
:1086F000E73020490968884700BF00BF00BF00BFBE
:1087000000BF00BF00BF00BF00BF00BF00BF00BF71
:1087100000BF00BF00BF00BF00BF00BF009800281F
:1087200024D000BF00BF00BF00BF00BF00BF00BF1C
:1087300000BF00BF00BF00BF00BF00BF00BF00BF41
:1087400000BF00BF00BF00BF00BF00BF00BF00BF31
:1087500000BF00BF00BF00BF00BF00BF00BF00BF21
:1087600000BF00BF00BF00BF00BF00BF00980028CF
:10877000BAD108BD4C00002000BF401E00BF00BFA2
:1087800000BF00BF00BF00BF00BF00BF00D000E0BF
:1087900013E000BF00BF00BF00BF00BF00BF00BFAD
:1087A00000BF00BF00BF00BF00BF00BF00BF00BFD1
:1087B00000BF00BF00BF00BFDFE7704700BF401E23
:1087C00000BF00BF00BF00BF00BF00BF00BF00BFB1
:1087D00000BF00BF00BF00BF00BF00BF00BF00BFA1
:1087E00000BF00BF00BF00BF00BF00BF00BF00D080
:1087F00000E014E000BF00BF00BF00BF00BF00BF2B
:1088000000BF00BF00BF00BF00BF00BF00BF00BF70
:1088100000BF00BF00BF00BF00BF00BFCFE7704771
:1088200000BF401E00BF00BF00BF00BF00BF00BFB1
:1088300000BF00BF00BF00BF00BF00BF00BF00BF40
:1088400000BF00BF00BF00BF00BF00BF00BF00BF30
:1088500000BF00BF00BF00BF00BF00BF00BF00BF20
:1088600000BF00BF00BF00BF00BF00BF00BF00BF10
:1088700000BF00D000E014E000BF00BF00BF00BF99
:1088800000BF00BF00BF00BF00BF00BF00BF00BFF0
:1088900000BF00BF00BF00BF00BF00BF00BF00BFE0
:1088A000BFE7704730B50446002508E020797E28F0
:1088B00001D1254608E0204600F05CF804461CB1D2
:1088C0002068401C0028F1D100BF284630BD0000C0
:1088D00070B5044603F05CFC050C132D13D1214840
:1088E000006820601F48001D006860601D48001F70
:1088F0000068A0604FF4FE204068E0604FF4FE2066
:10890000006820612BE0142D13D117480068206007
:108910001548001D006860601348001F0068A060D3
:108920004FF47F204068E0604FF47F2000682061B2
:1089300015E0152D11D10D48006820600B48001D71
:10894000006860600948001F0068A060084840682F
:10895000E06007480068206101E0012070BD002050
:10896000FCE70000F8FF0700F8FF0F00F8FF1F000A
:1089700000F01F000146002200200B685B1C3BB189
:10898000B1F8053023B10A46B1F805301A44104653
:10899000704770B50446002534B12046FFF7EAFF62
:1089A0000646FFF77FFF0546284670BD00204FF0C2
:1089B0008141496801F0030101B926E04FF081418E
:1089C000496801F0030103291CD14FF08141496836
:1089D00001F48071B1F5807F02D000BF00BFFEE7D7
:1089E0004FF08141496801F4007109B901200CE0A0
:1089F0004FF08141496801F40071B1F5007F04D165
:108A0000022002E000BF00BFFEE7704710B500245F
:108A100008E0102C05D0112C03D00021204603F0D3
:108A200045FD641C202CF4DB0621102003F03EFDE4
:108A30000621112003F03AFD10BD000010B5002002
:108A400003F0C6FC68B92548007888B905F098F9A4
:108A500023490968401A14280AD301201F490870C5
:108A600010BD00201D49087005F08AF91C490860F6
:108A7000012003F0ADFC70B91A48007890B905F0F8
:108A80007FF919490968401A14280BD301201549A8
:108A900008700220E4E700201249087005F070F920
:108AA00011490860022003F093FC70B90F48007868
:108AB00090B905F065F90E490968401A14280BD3DE
:108AC00001200A4908700320CAE7002007490870FE
:108AD00005F056F9064908600020C1E708000020AB
:108AE0000C00002009000020100000200A000020D7
:108AF0001400002006E0142003F076FC4FF4FA7016
:108B000004F02CFEF7E7000010B5142003F05AFC27
:108B1000142003F02FFC142003F054FC0A20084911
:108B200009688847152003F04DFC152003F022FC4E
:108B3000152003F047FC0A2001490968884710BD49
:108B400050000020454804F04BFD454804F055FD19
:108B5000444804F052FD444804F04FFD28204049A9
:108B600008603C203F49086032203F4908603FA030
:108B700003F0D2F84BA003F0CFF8384956A003F029
:108B8000CBF83648416860A003F0C6F83349083195
:108B900069A003F0C1F8324973A003F0BDF8314970
:108BA0007DA003F0B9F8304987A003F0B5F892A092
:108BB00003F0B2F89CA003F0AFF803E00A20A2494A
:108BC00009688847FFF73AFF0128F7D1244923486D
:108BD00004F016FD9DA003F09FF832A003F09CF86E
:108BE0001E48C168A6A003F097F81D484168B0A0D0
:108BF00003F092F8BAA003F08FF818480169C6A0F4
:108C000003F08AF816488168CFA003F085F8DAA04F
:108C100003F082F884A003F07FF803E00A208A4979
:108C200009688847FFF70AFF0128F7D10D490B486B
:108C300004F0E6FCDCA003F06FF81AA003F06CF877
:108C40000648C168E5A003F067F805484168EFA051
:108C500003F062F803484168F0E10000D000002012
:108C6000E4000020F80000200C0100202F2A2A2A0E
:108C70002A2A2A2A2A2A2A2A20E58897E8A1A8E56A
:108C8000928CE58897E8A1A8E9A1B9E59CB0E59D9B
:108C900080202A2A2A2A2A2A2A2A2A2A2A2A2F20ED
:108CA0000D0A0000E9A1B9E79BAE2020202020207A
:108CB00020202020202020202020202020202020B4
:108CC000202020202020E59CB0E59D802020202031
:108CD0002020200D0A000000546573744C697374E1
:108CE0002020202020202020202020202020202084
:108CF0002020202020202020252378202020202014
:108D000020200D0A00000000546573744C697374D0
:108D10002D3E7078496E6465782020202020202028
:108D200020202020202020202523782020202020E3
:108D300020200D0A00000000546573744C697374A0
:108D40002D3E784C697374456E64202020202020CD
:108D500020202020202020202523782020202020B3
:108D600020200D0A000000004C6973744974656D81
:108D700031202020202020202020202020202020E2
:108D80002020202020202020252378202020202083
:108D900020200D0A000000004C6973744974656D51
:108DA00032202020202020202020202020202020B1
:108DB0002020202020202020252378202020202053
:108DC00020200D0A000000004C6973744974656D21
:108DD0003320202020202020202020202020202080
:108DE0002020202020202020252378202020202023
:108DF00020200D0A000000002F2A2A2A2A2A2A2AC7
:108E00002A2A2A2A2A2A2A2A2A20E7BB93E69D9F71
:108E1000202A2A2A2A2A2A2A2A2A2A2A2A2A2A2ABC
:108E20002A2A2F200D0A0000E68C89E4B88B4B45D6
:108E30005930E994AEE7BBA7E7BBADEFBC810D0AA3
:108E40000D0A0D0A00000000500000202F2A2A2AD7
:108E50002A2A2A2A2A2A2A20E6B7BBE58AA0E588F8
:108E600097E8A1A84C6973744974656D31202A2A6A
:108E70002A2A2A2A2A2A2A2A2A2F200D0A00000012
:108E8000546573744C6973742D3E784C69737445E2
:108E90006E642D3E70784E6578742020202020204E
:108EA000252378202020202020200D0A000000000B
:108EB0004C6973744974656D312D3E70784E6578D8
:108EC000742020202020202020202020202020204E
:108ED000252378202020202020200D0A00000000DB
:108EE0002F2A2A2A2A2A2A2A2A2A2A2A20E5898D6A
:108EF000E5908EE59091E8BF9EE68EA5E58886E533
:108F000089B2E7BABF202A2A2A2A2A2A2A2A2A2A02
:108F10002A2A2F200D0A0000546573744C6973745B
:108F20002D3E784C697374456E642D3E7078507296
:108F30006576696F757320202523782020202020F6
:108F400020200D0A000000004C6973744974656D9F
:108F5000312D3E707850726576696F7573202020D0
:108F600020202020202020202523782020202020A1
:108F700020200D0A000000002F2A2A2A2A2A2A2A45
:108F80002A2A2A2A2A2A2A2A2A2A20E7BB93E69D65
:108F90009F202A2A2A2A2A2A2A2A2A2A2A2A2A2AC6
:108FA0002A2A2F200D0A00002F2A2A2A2A2A2A2AB2
:108FB0002A2A20E6B7BBE58AA0E58897E8A1A8E9B8
:108FC000A1B94C6973744974656D32202A2A2A2A22
:108FD0002A2A2A2A2A2A2F200D0A0000546573748F
:108FE0004C6973742D3E784C697374456E642D3EE4
:108FF00070784E657874202020202020252378204A
:10900000202020202020200D0A0000004C697374CD
:109010004974656D312D3E70784E6578742020203E
:1090200020202020202020202020202025237820E0
:10903000202020202020200D0A0000007AA002F02D
:109040006BFE85A002F068FE9148016991A002F0D4
:1090500063FE9C4881689CA002F05EFEA248816885
:10906000A2A002F059FEADA002F056FEAFF24820D9
:1090700002F052FE03E00A20B54909688847FFF76D
:10908000DDFC0128F7D1B349814804F0B9FAB2A058
:1090900002F042FEAFF2F43002F03EFE7C48C168BE
:1090A000AFF2242002F038FE86484168AFF200207B
:1090B00002F032FEA7484168B4A002F02DFE8A48B3
:1090C0004168BEA002F028FEAFF2EC1002F024FED0
:1090D0006F480169AFF2C01002F01EFE7948816846
:1090E000AFF29C1002F018FE9A488168BFA002F00F
:1090F00013FE7D488168C9A002F00EFEAFF2881011
:1091000002F00AFEAFF2E02002F006FE03E00A20C1
:109110008F4909688847FFF791FC0128F7D1724809
:1091200004F038FAC9A002F0F7FDAFF2884002F06F
:10913000F3FD5748C168AFF2B82002F0EDFD614879
:109140004168AFF2942002F0E7FD824841688FA0A9
:1091500002F0E2FD40A002F0DFFD4D480169AFF2F0
:10916000482002F0D9FD57488168AFF2242002F070
:10917000D3FD784881689DA002F0CEFDC0A002F02A
:10918000CBFDAFF25C3002F0C7FD03E00A2070496E
:1091900009688847FFF752FC0128F7D13C4840682E
:1091A00040683B4948605049394804F043FAC0A040
:1091B00002F0B2FDCCA002F0AFFD35484168AFF23D
:1091C000B84002F0A9FD3248C168AFF24C3002F05D
:1091D000A3FD4548416879A002F09EFD39484168E9
:1091E000AFF2343002F098FD5A48416867A002F0AF
:1091F00093FDCAA002F090FD25480169D5A002F0B8
:109200008BFD39488168DEA002F086FD2D4881681B
:10921000E6A002F081FD4F488168EFA002F07CFDDE
:10922000F8A002F079FD0EE24C6973744974656D23
:10923000322D3E70784E657874202020202020202A
:1092400020202020202020202523782020202020BE
:109250002020200D0A0000002F2A2A2A2A2A2A2A42
:109260002A2A2A2A2A20E5898DE5908EE59091E820
:10927000BF9EE68EA5E58886E589B2E7BABF202ABB
:109280002A2A2A2A2A2A2A2A2A2A2F200D0A0000D4
:10929000D0000020546573744C6973742D3E784C73
:1092A000697374456E642D3E707850726576696F8F
:1092B0007573202025237820202020202020200DB9
:1092C0000A000000E40000204C6973744974656D65
:1092D000312D3E707850726576696F757320252345
:1092E00078200D0A00000000F80000204C6973741B
:1092F0004974656D322D3E707850726576696F7570
:1093000073202020202020202020202025237820AA
:10931000202020202020200D0A0000002F2A2A2AA9
:109320002A2A2A2A2A2A2A2A2A2A2A2A2A20E7BB59
:1093300093E69D9F202A2A2A2A2A2A2A2A2A2A2A8A
:109340002A2A2A2A2A2A2F2020200D0A000000007B
:10935000500000200C0100202F2A2A2A2A2A2A2A1B
:109360002A2A20E6B7BBE58AA0E58897E8A1A8E904
:10937000A1B94C6973744974656D33202A2A2A2A6D
:109380002A2A2A2A2A2A2F200D0A00004C697374DF
:109390004974656D332D3E70784E657874202020B9
:1093A000202020202020202020202020252378205D
:1093B0002020202020200D0A000000004C6973743A
:1093C0004974656D322D3E70784E6578742020208A
:1093D000202020202020202020202020252378202D
:1093E0002020202020200D0A000000004C6973740A
:1093F0004974656D332D3E707850726576696F756E
:1094000073202020202020202020202025237820A9
:109410002020202020200D0A000000004C697374D9
:109420004974656D322D3E707850726576696F753E
:109430007320202020202020202020202523782079
:109440002020202020200D0A000000002F2A2A2A98
:109450002A2A2A2A2A2A2A20E588A0E999A4E58826
:1094600097E8A1A8E9A1B94C6973744974656D3294
:10947000202A2A2A2A2A2A2A2A2A2F200D0A0000EC
:109480002F2A2A2A2A2A2A2A2A2A2A2A2A2A2A2A37
:109490002A20E7BB93E69D9F202A2A2A2A2A2A2AE5
:1094A0002A2A2A2A2A2A2A2A2A2A2F20200D0A0092
:1094B0002F2A2A2A2A2A2A20E59CA8E69CABE5B076
:1094C000BEE6B7BBE58AA0E58897E8A1A8E9A1B9FF
:1094D0004C6973744974656D32202A2A2A2A2A2A13
:1094E0002A2F200D0A000000E9A1B9E79BAE202039
:1094F000202020202020202020202020202020206C
:1095000020202020202020202020E59CB0E59D80E8
:109510002020202020200D0A000000002F2A2A2AC7
:109520002A2A2A2A2A2A2A2A20E5898DE5908EE5E8
:109530009091E8BF9EE68EA5E58886E589B2E7BAF8
:10954000BF202A2A2A2A2A2A2A2A2A2A2F20200D1C
:109550000A000000546573744C6973742D3E784C96
:10956000697374456E642D3E707850726576696FCC
:10957000757320202523782020202020200D0A002C
:109580004C6973744974656D322D3E707850726504
:1095900076696F7573202020202020202020202035
:1095A0002523782020202020200D0A004C69737488
:1095B0004974656D312D3E707850726576696F75AE
:1095C00073202020202020202020202025237820E8
:1095D00020202020200D0A004C6973744974656DA9
:1095E000332D3E707850726576696F757320202038
:1095F000202020202020202025237820202020200B
:10960000200D0A002F2A2A2A2A2A2A2A2A2A2A2A26
:109610002A2A2A2A2AE7BB93E69D9F202A2A2A2A59
:109620002A2A2A2A2A2A2A2A2A2A2A2A2A2F2020A9
:109630000D0A0D0A0D0A0000152002F0D5FE4FF4A8
:109640007A7004F08BF8F7E710B5C1790289012927
:1096500001D002290CD1074B9B6C23F4803303F516
:109660008033044CA36423465B6A62F3194363624C
:1096700010BD00000000204030B50021C279837B7E
:10968000012B04D0022B04D0032B06D103E0417C34
:1096900005E0017D03E0C17D01E0002200BF00BFC5
:1096A000012A01D0022A15D10B4C246861F303046E
:1096B000094D903DC5F890402C46D4F8904061F398
:1096C0000714C5F890402C46D4F8904061F30B2461
:1096D000C5F8904030BD00009000204030B500211A
:1096E000C279837B012B04D0022B04D0032B06D13B
:1096F00003E0417C05E0017D03E0C17D01E0002243
:1097000000BF00BF012A01D0022A15D10B4C2468EA
:1097100061F30304094D983DC5F898402C46D4F8F0
:10972000984061F30714C5F898402C46D4F8984047
:1097300061F30B24C5F8984030BD0000980020402C
:1097400030B50021C279837B012B04D0022B04D0D9
:10975000032B06D103E0417C05E0017D03E0C17DE0
:1097600001E0002200BF00BF012A01D0022A15D16A
:109770000B4C246861F31344094D903DC5F89040AB
:109780002C46D4F8904061F31754C5F890402C460D
:10979000D4F8904061F31B64C5F8904030BD0000E0
:1097A0009000204030B50023C179827B012A04D08B
:1097B000022A04D0032A06D103E0437C05E0037D9E
:1097C00003E0C37D01E0002100BF00BF012901D0FB
:1097D000022905D1034C246863F30B24014D2C604E
:1097E00030BD00000000204030B50021C279837BED
:1097F000012B04D0022B04D0032B06D103E0417CC3
:1098000005E0017D03E0C17D01E0002200BF00BF53
:10981000012A01D0022A15D10B4C246861F31244AD
:10982000094D983DC5F898402C46D4F8984061F30E
:109830001654C5F898402C46D4F8984061F31A6441
:10984000C5F8984030BD00009800204030B5002198
:10985000C279837B012B04D0022B04D0032B06D1C9
:1098600003E0417C05E0017D03E0C17D01E00022D1
:1098700000BF00BF012A01D0022A15D10B4C246879
:1098800061F30304094D943DC5F894402C46D4F887
:10989000944061F30714C5F894402C46D4F89440E2
:1098A00061F30B24C5F8944030BD000094002040C3
:1098B00030B504462046FEF7F5FF054634E028683B
:1098C0001B4908440B2829D2DFE800F0060A0F14D0
:1098D00019282828281E23002046FFF7CDFE1EE069
:1098E00004F11800FFF72CFF19E004F13000FFF736
:1098F000F5FE14E004F14800FFF7A8FF0FE004F1C3
:109900006000FFF771FF0AE004F1C500FFF74AFFAE
:1099100005E004F1DD00FFF797FE00E000BF00BFA7
:109920002846FFF736F80546002DC8D130BD0000A7
:10993000FFFFFEA510B586B0002400202E49087058
:10994000142101A8FEF73FFC01A8FEF7C1FF00BFEC
:1099500001986FF30F002949884208D10298B0F5A9
:10996000803F04D10498B0F5805F00D80124012C19
:109970000FD12249491C0198884202D10398401C0A
:1099800018B11F490398884203D101201A49087071
:109990001AE000F007F918B903201749087013E01E
:1099A000012C10D11549491C0198884202D1039815
:1099B000801C20B11249491C0398884203D102201F
:1099C0000D49087000E000BF00BF0B480078012877
:1099D00004D0022803D0032809D104E000BF059871
:1099E000FFF766FF04E00748FFF762FF00E000BFF3
:1099F00000BF06B010BD000048000020000057580E
:109A000001003C5A7C07002010B502460C464FF47A
:109A1000616140F6FF735089984201DD012010BD5D
:109A2000D089984201DD0120F9E7508A984201DD92
:109A30000120F4E7D08A984201DD0120EFE7508B46
:109A4000984201DD0120EAE71089884201DD01200A
:109A5000E5E79089884201DD0120E0E7108A88422D
:109A600001DD0120DBE7908A884201DD0120D6E795
:109A7000108B884201DD0120D1E70120D071002048
:109A8000CDE731F8012F02810A8982814A8842811B
:109A90004A89491EC2817047B1F8012002818A8833
:109AA000A0F80B20CA7882728A794273704700004E
:109AB00010B502460C460F214FF4FA632148844248
:109AC00000D107211F48401D844201D14FF461633A
:109AD000907A884201DD012010BD507B884201DD73
:109AE0000120F9E7507C884201DD0120F4E7107D78
:109AF000884201DD0120EFE7D07D884201DD0120B1
:109B0000EAE71089984201DD0120E5E7B2F80B0091
:109B1000984201DD0120DFE7B2F80F00984201DD35
:109B20000120D9E7508A984201DD0120D4E7B2F83C
:109B30001500984201DD0120CEE70120D07190731D
:109B40000020C9E70500015A018A0289891AC289E1
:109B50004389D21A514382890389D21A91FBF2F1C7
:109B6000428911444182818A0289891AC2894389C2
:109B7000D21A514382890389D21A91FBF2F14289A8
:109B80001144C182018B0289891AC2894389D21A80
:109B9000514382890389D21A91FBF2F1428911441F
:109BA0004183704700B59BB0FE480068FE490860DD
:109BB000FC4800790871FB48B0F80500A1F80500E1
:109BC000F848C079C871F74800890881F548807A5B
:109BD0008872F448B0F80B00A1F80B00F148407B04
:109BE0004873F048807B8873EE48B0F80F00A1F806
:109BF0000F00EC48407C4874EA48408A4882E948B3
:109C0000007D0875E748B0F81500A1F81500E54893
:109C1000C07DC875E34880698861E248017FE248F9
:109C20000177E048B0F81D10DF48A0F81D10DD48AE
:109C3000C17FDD48C177DB48018CDB480184D9480E
:109C400090F82210D84880F82210D648B0F8231097
:109C5000D548A0F82310D34890F82510D24880F8B2
:109C60002510D04890F82610CF4880F82610CD480F
:109C7000B0F82710CC48A0F82710CA4890F829104F
:109C8000C94880F82910C748418DC7484185C54853
:109C900090F82C10C44880F82C10C248B0F82D1051
:109CA000C148A0F82D10BF4890F82F10BE4880F88A
:109CB0002F10BC48006BBC490863BA4890F83410B8
:109CC000B94880F83410B748B0F83510B648A0F855
:109CD0003510B44890F83710B34880F83710B148C1
:109CE000018FB1480187AF4890F83A10AE4880F82C
:109CF0003A10AC48B0F83B10AB48A0F83B10A9486C
:109D000090F83D10A84880F83D10A64890F83E1005
:109D1000A54880F83E10A348B0F83F10A248A0F82C
:109D20003F10A04890F841109F4880F841109D488E
:109D3000B0F842109C48A0F842109A4890F844109D
:109D4000994880F844109748B0F845109648A0F814
:109D50004510944890F84710934880F84710914870
:109D6000806C914988648F4890F84C108E4880F838
:109D70004C108C48B0F84D108B48A0F84D10894815
:109D800090F84F10884880F84F108648B0F850106F
:109D90008548A0F85010834890F85210824880F807
:109DA00052108048B0F853107F48A0F853107D48F7
:109DB00090F855107C4880F855107A4890F8561065
:109DC000794880F856107748B0F857107648A0F8D0
:109DD0005710744890F85910734880F8591071481A
:109DE000B0F85A107048A0F85A106E4890F85C10FD
:109DF0006D4880F85C106B48B0F85D106A48A0F8B8
:109E00005D10684890F85F10674880F85F106548FB
:109E1000006E65490866634890F86410624880F8EF
:109E200064106048B0F865105F48A0F865105D48A0
:109E300090F867105C4880F867105A48B0F86810CE
:109E40005948A0F86810574890F86A10564880F8AA
:109E50006A105448B0F86B105348A0F86B10514882
:109E600090F86D10504880F86D104E4890F86E10C4
:109E70004D4880F86E104B48B0F86F104A48A0F873
:109E80006F10484890F87110474880F871104548A5
:109E9000B0F872104448A0F87210424890F874105C
:109EA000414880F874103F48B0F875103E48A0F85B
:109EB00075103C4890F877103B4880F87710394887
:109EC000806F39498867374890F87C10364880F8A9
:109ED0007C103448B0F87D103348A0F87D1031482C
:109EE00090F87F10304880F87F102E48B0F880102E
:109EF0002D48A0F880102B48B0F882102A48A0F80E
:109F000082102848B0F884102748A0F8841025480B
:109F1000B0F886102448A0F886102248B0F88810BF
:109F20002148A0F888101F48B0F88A101E48A0F8F1
:109F30008A101C48B0F88C101B48A0F88C101948E7
:109F4000B0F88E101848A0F88E101648B0F890108F
:109F50001548A0F890101348B0F892101248A0F8D5
:109F600092101048D0F894000F49C1F894000D48A1
:109F700090F898100C4880F898100A48B0F899109A
:109F80000948A0F89910074890F89B10064880F8F7
:109F90009B100448B0F89C100348A0F89C1001489E
:109FA00004E00000C0E100007C070020B0F89E1033
:109FB000FE48A0F89E10FE48B0F8A010FB48A0F89C
:109FC000A010FB48B0F8A210F848A0F8A210F8487A
:109FD000B0F8A410F548A0F8A410F548B0F8A61001
:109FE000F248A0F8A610F248B0F8A810EF48A0F880
:109FF000A810EF48B0F8AA10EC48A0F8AA10EC4856
:10A00000B0F8AC10E948A0F8AC10E948B0F8AE10D0
:10A01000E648A0F8AE10E648D0F8B000E349C1F831
:10A02000B000E34890F8B410E04880F8B410E0487D
:10A03000B0F8B510DD48A0F8B510DD4890F8B710BD
:10A04000DA4880F8B710DA4890F8B810D74880F8A6
:10A05000B810D748B0F8B910D448A0F8B910D4480F
:10A06000D0F8BB00D149C1F8BB00D14890F8BF106F
:10A07000CE4880F8BF10CE48B0F8C010CB48A0F84A
:10A08000C010CB4890F8C210C84880F8C210C84829
:10A09000B0F8C310C548A0F8C310C548D0F8C50033
:10A0A000C249C1F8C500C24890F8C910BF4880F83D
:10A0B000C910BF48B0F8CA10BC48A0F8CA10BC48C4
:10A0C00090F8CC10B94880F8CC10B948B0F8CD1051
:10A0D000B648A0F8CD10B64890F8CF10B34880F835
:10A0E000CF10B348B0F8D010B048A0F8D010B048A6
:10A0F00090F8D210AD4880F8D210AD4890F8D31047
:10A10000AA4880F8D310AA48B0F8D410A748A0F8FD
:10A11000D410A74890F8D610A44880F8D610A448C8
:10A12000B0F8D710A148A0F8D710A14890F8D910DE
:10A130009E4880F8D9109E48B0F8DA109B48A0F8E5
:10A14000DA109B4890F8DC10984880F8DC109848AA
:10A15000D0F8DD009549C1F8DD00954890F8E11090
:10A16000924880F8E1109248B0F8E2108F48A0F8C9
:10A17000E2108F4890F8E4108C4880F8E4108C4886
:10A18000B0F8E5108948A0F8E5108948D0F8E70054
:10A190008649C1F8E700864890F8EB10834880F8BC
:10A1A000EB108348B0F8EC108048A0F8EC10804821
:10A1B00090F8EE107D4880F8EE107D4890F8EF1092
:10A1C0007A4880F8EF107A48D0F8F0007749C1F863
:10A1D000F000774890F8F410744880F8F410744850
:10A1E000B0F8F5107148A0F8F510714890F8F71024
:10A1F0006E4880F8F7106E4890F8F8106B4880F8B9
:10A20000F8106B48B0F8F9106848A0F8F9106848E1
:10A21000B0F8FB106548A0F8FB106548B0F8FD10D9
:10A220006248A0F8FD106248B0F8FF105F48A0F83F
:10A23000FF105F48B0F801115C48A0F801115C48BC
:10A24000B0F803115948A0F803115948B0F80511A6
:10A250005648A0F805115648D0F807015349C1F8EF
:10A260000701534890F80B11504880F80B115048E3
:10A27000B0F80C114D48A0F80C114D4890F80E1193
:10A280004A4880F80E114A4890F80F11474880F864
:10A290000F114748B0F810114448A0F81011444875
:10A2A000B0F812114148A0F812114148B0F8141149
:10A2B0003E48A0F814113E48B0F816113B48A0F8EB
:10A2C00016113B48B0F818113848A0F81811384852
:10A2D000B0F81A113548A0F81A113548B0F81C1119
:10A2E0003248A0F81C113248D0F81E012F49C1F89D
:10A2F0001E012F4890F822112C4880F822112C487A
:10A30000B0F823112948A0F82311294890F8251105
:10A31000264880F82511264890F82611234880F811
:10A3200026112348B0F827112048A0F8271120480B
:10A33000B0F829111D48A0F829111D48B0F82B11BB
:10A340001A48A0F82B111A48B0F82D111748A0F898
:10A350002D111748B0F82F111448A0F82F111448E8
:10A36000B0F831111148A0F831111148B0F833118B
:10A370000E48A0F833110E48D0F835010B49C1F84A
:10A3800035010B4890F83911084880F83911084810
:10A39000B0F83A110548A0F83A11054890F83C1178
:10A3A000024880F83C11024804E000007C070020CD
:10A3B000C0E1000090F83D11F94880F83D11F948DE
:10A3C000B0F83E11F648A0F83E11F648B0F840113A
:10A3D000F348A0F84011F348B0F84211F048A0F853
:10A3E0004211F048B0F84411ED48A0F84411ED488E
:10A3F000B0F84611EA48A0F84611EA48B0F848110A
:10A40000E748A0F84811E748B0F84A11E448A0F836
:10A410004A11E448D0F84C01E149C1F84C01E14847
:10A4200090F85011DE4880F85011DE48B0F8511114
:10A43000DB48A0F85111DB4890F85311D84880F858
:10A440005311D84890F85411D54880F85411D54884
:10A4500090F85511D24880F85511D24890F856110D
:10A46000CF4880F85611CF4890F85711CC4880F863
:10A470005711CC4890F85811C94880F85811C9486C
:10A48000D0F85901C649C1F85901C64890F85D1184
:10A49000C34880F85D11C348B0F85E11C048A0F809
:10A4A0005E11C04890F86011BD4880F86011BD4849
:10A4B00090F86111BA4880F86111BA4890F86211B9
:10A4C000B74880F86211B74890F86311B44880F833
:10A4D0006311B44890F86411B14880F86411B14830
:10A4E00090F86511AE4880F86511AE48D0F8660165
:10A4F000AB49C1F86601AB4890F86A11A84880F8EA
:10A500006A11A848B0F86B11A548A0F86B11A548CE
:10A5100090F86D11A24880F86D11A248B0F86E1144
:10A520009F48A0F86E119F48D0F870019C49C1F86F
:10A5300070019C4890F87411994880F874119948FA
:10A54000B0F875119648A0F87511964890F87711F3
:10A55000934880F87711934890F87811904880F8E4
:10A560007811904890F879118D4880F879118D48CC
:10A5700090F87A118A4880F87A118A4890F87B110D
:10A58000874880F87B118748D0F87C018449C1F85E
:10A590007C01844890F88011814880F880118148BE
:10A5A000B0F881117E48A0F881117E4890F883119F
:10A5B0007B4880F883117B4890F88411784880F8B4
:10A5C00084117848B0F885117548A0F88511754850
:10A5D000B0F887117248A0F887117248B0F8891155
:10A5E0006F48A0F889116F48B0F88B116C48A0F83B
:10A5F0008B116C48B0F88D116948A0F88D1169482D
:10A60000B0F88F116648A0F88F116648B0F8911124
:10A610006348A0F891116348D0F893016049C1F8EC
:10A620009301604890F897115D4880F897115D4854
:10A63000B0F898115A48A0F898115A4890F89A1111
:10A64000574880F89A11574890F89B11544880F861
:10A650009B11544890F89C11514880F89C11514826
:10A6600090F89D114E4880F89D114E4890F89E112B
:10A670004B4880F89E114B4890F89F11484880F84D
:10A680009F11494801F08AFD10B101201BB000BDA7
:10A690004549D1E90801CDE919019DF86400012877
:10A6A0007CD13F4800680E903D4800798DF83C0011
:10A6B0003B48B0F80500ADF83D003948C0798DF849
:10A6C0003F0037480089ADF840003548807A8DF862
:10A6D00042003348B0F80B00ADF843003048407BEF
:10A6E0008DF845002E48807B8DF846002C48B0F848
:10A6F0000F00ADF847002A48407C8DF849002848F3
:10A70000408AADF84A002648007D8DF84C00244868
:10A71000B0F81500ADF84D002148C07D8DF84F0010
:10A7200019A90EA8FFF7B8F90EA800F09FFD1F4960
:10A730000EA8FFF7BDF990BB19490E9808609DF867
:10A740003C000871BDF83D00A1F805009DF83F00F0
:10A75000C871BDF8400008819DF842008872BDF8BC
:10A760004300A1F80B009DF8450048739DF8460092
:10A770008873BDF84700A1F80F009DF849004874A0
:10A78000BDF84A0048829DF84C000875BDF84D00A0
:10A79000A1F815009DF84F00C87511E00AE007E028
:10A7A0007C070020C0E100001C0900200100015AC4
:10A7B00001206BE79DF86400FF2801D1012065E7C7
:10A7C000FE49D1E90C01CDE919019DF86400012889
:10A7D0007DD1FB4880690E90F948007F8DF83C00E0
:10A7E000F748B0F81D00ADF83D00F548C07F8DF882
:10A7F0003F00F348008CADF84000F14890F822008B
:10A800008DF84200EE48B0F82300ADF84300EC4864
:10A8100090F825008DF84500E94890F826008DF85D
:10A820004600E748B0F82700ADF84700E44890F844
:10A8300029008DF84900E248408DADF84A00E04813
:10A8400090F82C008DF84C00DD48B0F82D00ADF8E4
:10A850004D00DB4890F82F008DF84F0019A90EA885
:10A86000FFF71AF90EA800F001FDD6490EA8FFF770
:10A870001FF968BBD2490E9888619DF83C10D048FA
:10A880000177BDF83D10A0F81D109DF83F10C1776D
:10A89000BDF8401001849DF8421080F82210BDF8E8
:10A8A0004310A0F823109DF8451080F825109DF85E
:10A8B000461080F82610BDF84710A0F827109DF824
:10A8C000491080F82910BDF84A10418501E00FE0D9
:10A8D0000CE09DF84C1080F82C10BDF84D10A0F83D
:10A8E0002D109DF84F1080F82F1007E00120CDE6C5
:10A8F0009DF86400FF2801D10120C7E6AF49D1E9E6
:10A900001001CDE919019DF8640001287ED1AC4801
:10A91000006B0E90AA4890F834008DF83C00A848CF
:10A92000B0F83500ADF83D00A54890F837008DF837
:10A930003F00A348008FADF84000A14890F83A00CE
:10A940008DF842009E48B0F83B00ADF843009C48AB
:10A9500090F83D008DF84500994890F83E008DF83C
:10A9600046009748B0F83F00ADF84700944890F88B
:10A9700041008DF849009248B0F84200ADF84A0015
:10A980008F4890F844008DF84C008D48B0F8450091
:10A99000ADF84D008A4890F847008DF84F0019A98E
:10A9A0000EA8FFF779F80EA800F060FC8549491C55
:10A9B0000EA8FFF77DF850BB81490E9808639DF8FB
:10A9C0003C107F4880F83410BDF83D10A0F83510D9
:10A9D0009DF83F1080F83710BDF8401001879DF8B2
:10A9E000421080F83A10BDF84310A0F83B109DF8D3
:10A9F000451080F83D109DF8461080F83E10BDF8D7
:10AA00004710A0F83F109DF8491001E015E012E052
:10AA100080F84110BDF84A10A0F842109DF84C1083
:10AA200080F84410BDF84D10A0F845109DF84F1067
:10AA300080F8471007E0012028E69DF86400FF2811
:10AA400001D1012022E65D49D1E91401CDE91901C6
:10AA50009DF8640001287CD15948806C0E905848BC
:10AA600090F84C008DF83C005548B0F84D00ADF81A
:10AA70003D00534890F84F008DF83F005048B0F823
:10AA80005000ADF840004E4890F852008DF842005A
:10AA90004B48B0F85300ADF84300494890F85500D2
:10AAA0008DF84500464890F856008DF84600444819
:10AAB000B0F85700ADF84700414890F859008DF8BC
:10AAC00049003F48B0F85A00ADF84A003C4890F8B9
:10AAD0005C008DF84C003A48B0F85D00ADF84D00D0
:10AAE000374890F85F008DF84F0019A90EA8FEF7BF
:10AAF000D3FF0EA800F0BAFB3249891C0EA8FEF75E
:10AB0000D7FF38BB2E490E9888649DF83C102C481E
:10AB100080F84C10BDF83D10A0F84D109DF83F1086
:10AB200080F84F10BDF84010A0F850109DF842106A
:10AB300080F85210BDF84310A0F853109DF845104E
:10AB400080F855109DF8461080F85610BDF8471053
:10AB500001E019E016E0A0F857109DF8491080F8C0
:10AB60005910BDF84A10A0F85A109DF84C1080F802
:10AB70005C10BDF84D10A0F85D109DF84F1080F8E6
:10AB80005F1007E0012081E59DF86400FF2801D1F6
:10AB900001207BE50949D1E91801CDE919019DF8AA
:10ABA000640001287DD10648006E0E90044890F89C
:10ABB00064008DF83C00024806E000001C090020FB
:10ABC0007C0700200200015AB0F86500ADF83D0096
:10ABD000FE4890F867008DF83F00FC48B0F8680028
:10ABE000ADF84000F94890F86A008DF84200F74847
:10ABF000B0F86B00ADF84300F44890F86D008DF8A4
:10AC00004500F24890F86E008DF84600EF48B0F825
:10AC10006F00ADF84700ED4890F871008DF84900DD
:10AC2000EA48B0F87200ADF84A00E84890F87400BD
:10AC30008DF84C00E548B0F87500ADF84D00E348DC
:10AC400090F877008DF84F0019A90EA8FEF724FFA1
:10AC50000EA800F00BFBDE490EA8FEF729FFE0BBB3
:10AC6000DA490E9808669DF83C10D84880F86410C0
:10AC7000BDF83D10A0F865109DF83F1080F86710F2
:10AC8000BDF84010A0F868109DF8421080F86A10D6
:10AC9000BDF84310A0F86B109DF8451080F86D10BA
:10ACA00000E020E09DF8461080F86E10BDF84710D7
:10ACB000A0F86F109DF8491080F87110BDF84A1087
:10ACC000A0F872109DF84C1080F87410BDF84D106B
:10ACD000A0F875109DF84F1000E002E080F87710A2
:10ACE00007E00120D2E49DF86400FF2801D1012093
:10ACF000CCE4B84BD3E91D21186FDB6FCDE91713F6
:10AD0000CDE915029DF8540001287DD1AF48806F30
:10AD10000790AE4890F87C008DF82000AB48B0F862
:10AD20007D00ADF82100A94890F87F008DF8230040
:10AD3000A648B0F88000ADF82400A448B0F882001E
:10AD4000ADF82600A148B0F88400ADF828009F486F
:10AD5000B0F88600ADF82A009C48B0F88800ADF83D
:10AD60002C009A48B0F88A00ADF82E009748B0F849
:10AD70008C00ADF830009548B0F88E00ADF8320088
:10AD80009248B0F89000ADF834009048B0F89200C6
:10AD9000ADF8360015A907A8FEF773FE07A8FEF761
:10ADA000D3FE8B49491C07A8FEF72EFE68BB8749D6
:10ADB000079888679DF82010844880F87C10BDF8BB
:10ADC0002110A0F87D109DF8231080F87F10BDF8A9
:10ADD0002410A0F88010BDF82610A0F88210BDF84D
:10ADE0002810A0F88410BDF82A10A0F88610BDF82D
:10ADF0002C10A0F88810BDF82E10A0F88A10BDF80D
:10AE00003010A0F88C1001E00FE00CE0BDF832101B
:10AE1000A0F88E10BDF83410A0F89010BDF83610D0
:10AE2000A0F8921007E0012030E49DF85400FF28BC
:10AE300001D101202AE46748803090E80E00C06804
:10AE4000CDE91623159118909DF8540001287DD165
:10AE50005E48D0F8940007905C4890F898008DF810
:10AE600020005A48B0F89900ADF82100574890F8F2
:10AE70009B008DF823005548B0F89C00ADF82400E5
:10AE80005248B0F89E00ADF826005048B0F8A00037
:10AE9000ADF828004D48B0F8A200ADF82A004B48A4
:10AEA000B0F8A400ADF82C004848B0F8A600ADF802
:10AEB0002E004648B0F8A800ADF830004348B0F87E
:10AEC000AA00ADF832004148B0F8AC00ADF834004B
:10AED0003E48B0F8AE00ADF8360015A907A8FEF759
:10AEE000D0FD07A8FEF730FE3949891C07A8FEF7F8
:10AEF0008BFD60BB35490798C1F894009DF8201080
:10AF0000324880F89810BDF82110A0F899109DF8EB
:10AF1000231080F89B10BDF82410A0F89C10BDF8F9
:10AF20002610A0F89E10BDF82810A0F8A010BDF8BB
:10AF30002A10A0F8A210BDF82C10A0F8A410BDF89B
:10AF40002E10A0F8A610BDF8301001E011E00EE0C0
:10AF5000A0F8A810BDF83210A0F8AA10BDF834105F
:10AF6000A0F8AC10BDF83610A0F8AE1007E0012034
:10AF70001FE49DF85400FF2801D1012019E4154871
:10AF8000D0F8900014909DF85000012851D10F483E
:10AF9000D0F8B00004900D4890F8B4008DF814007B
:10AFA0000A48B0F8B500ADF81500084890F8B700A9
:10AFB0008DF81700054890F8B8008DF81800034880
:10AFC000B0F8B900ADF8190006E000007C070020D9
:10AFD0000500015A1C090020BDF85100ADF8190008
:10AFE000BDF85100002802DD01208DF818008E4ABE
:10AFF00014A904A800F09AF9C8B98C490498C1F8BA
:10B00000B0009DF81410894880F8B410BDF81510F0
:10B01000A0F8B5109DF8171080F8B7109DF818101B
:10B0200080F8B810BDF81910A0F8B91007E0012099
:10B030005DE49DF85000FF2801D1012057E47C48D1
:10B04000D0F8A00014909DF8500001283AD177481C
:10B05000D0F8BB000190754890F8BF008DF808004B
:10B060007248B0F8C000ADF80900704890F8C2000E
:10B070008DF80B006D48B0F8C300ADF80C00BDF8BA
:10B080005100ADF80C00684A521C01A904A800F058
:10B090004DF9A8B965490198C1F8BB009DF80810A1
:10B0A000624880F8BF10BDF80910A0F8C0109DF8E4
:10B0B0000B1080F8C210BDF80C10A0F8C31007E008
:10B0C000012014E49DF85000FF2801D101200EE476
:10B0D00057488030416B006BCDE919019DF8640041
:10B0E00001287CD15148D0F8C5000E904F4890F807
:10B0F000C9008DF83C004D48B0F8CA00ADF83D00DD
:10B100004A4890F8CC008DF83F004848B0F8CD0090
:10B11000ADF84000454890F8CF008DF84200434814
:10B12000B0F8D000ADF84300404890F8D2008DF858
:10B1300045003E4890F8D3008DF846003B48B0F8F3
:10B14000D400ADF84700394890F8D6008DF8490092
:10B150003648B0F8D700ADF84A00344890F8D90026
:10B160008DF84C003148B0F8DA00ADF84D002F48AA
:10B1700090F8DC008DF84F0019A90EA8FEF78CFCA2
:10B180000EA800F073F82849891C0EA8FEF790FC61
:10B1900030BB26490E98C1F8C5009DF83C102348E5
:10B1A00080F8C910BDF83D10A0F8CA109DF83F10F6
:10B1B00080F8CC10BDF84010A0F8CD109DF84210DA
:10B1C00080F8CF10BDF84310A0F8D0109DF84510BE
:10B1D00080F8D2109DF8461080F8D31001E01BE0F3
:10B1E00018E0BDF84710A0F8D4109DF8491080F879
:10B1F000D610BDF84A10A0F8D7109DF84C1080F872
:10B20000D910BDF84D10A0F8DA109DF84F1080F855
:10B21000DC1007E001200FE49DF86400FF2801D155
:10B22000012009E4002007E40800015A7C070020FF
:10B230001C09002010B502460F230B4CA14200D17F
:10B240000723094C641EA14204D1002A00DA1032FF
:10B25000D0B208E0002A01DA002004E09A4201DDC1
:10B26000184600E0D0B210BD0500015A2DE9FF419B
:10B2700004460025093460782179401A4FFA80F895
:10B2800034F8010C6188471AE0886188401A0190FF
:10B29000B4F809006188401A0290A0896188093CCD
:10B2A000401A039000BF33E001A850F825000028A1
:10B2B00002DA4FF0FF3000E00120064601A850F806
:10B2C000250000FB08F064214843704390FBF7F031
:10B2D000323001A941F8250001A850F82500642169
:10B2E00090FBF1F0704301A941F82500607B51F813
:10B2F0002510084401A941F82500216801AA52F847
:10B300002500FFF797FF40B20DF80500681C45B215
:10B31000032DC9DB9DF8000060749DF801002075C5
:10B320009DF80200E075BDE8FF81000030B50346DE
:10B33000012540F6FF740D4882420DD1187AA842CB
:10B3400001DD012030BDB3F80900A04201DD01207C
:10B35000F8E70120D87106E00889A04201DD01204C
:10B36000F0E70120C8710020ECE700000800015A56
:10B370001D480068C0F3017028B91B480068C0F37D
:10B38000026004280BD018480068C0F3017003283D
:10B3900007D115480068C0F30260072801D10220D8
:10B3A000704711480068C0F3017028B90E48006862
:10B3B000C0F3026004280BD10B480068C0F3017091
:10B3C000032807D108480068C0F30260072801D0AD
:10B3D0000320E5E704480068C0F30170012801D1AB
:10B3E0000020DDE70220DBE7BC00204010B5FDF7C0
:10B3F000DDFA0446012C01D0022C36D11C4800682D
:10B40000C0F3017028B91A480068C0F3026004282C
:10B410000BD017480068C0F30170032810D11448FE
:10B420000068C0F3026007280AD100F097FE0020F0
:10B43000FCF738FF00F0EAFFFDF7B8FA044614E025
:10B440000B480068C0F3017028B109480068C0F3D8
:10B450000170032809D100F081FE2046FCF722FF8D
:10B4600000F0D4FFFDF7A2FA0446204610BD00000C
:10B47000BC00204070B55148006D20F080704F49ED
:10B4800008650846406D20F0006048650846406B3E
:10B490006FF30A004863002432E04848406B64F3CD
:10B4A0001A60464948630846406D20F0007000F17C
:10B4B000007048650846406D20F0405048650846D9
:10B4C000406D20F0404000F1004048650846406D66
:10B4D00020F0806000F180604865012038490968EB
:10B4E00088473648406D20F08060344948650846FA
:10B4F000806DC0F311053348854200D302E0641C1F
:10B50000082CCAD300BF2D48406D20F0807000F198
:10B5100080702A4948650846006D6FF3110000F5F8
:10B52000C83008650846406D20F0FF00401D4865A2
:10B530000846406D20F4407000F58070486508466C
:10B54000406D20F4406000F5406048650846406D5D
:10B5500020F4405000F5405048650846406D20F406
:10B56000404000F5004048650846406D20F4E0206A
:10B5700000F5A02048650846406D20F4002000F545
:10B58000002048650846406D20F4E00000F5A0006A
:10B5900048650846406D20F0006000F10060486595
:10B5A0000846406D20F4000048650846006D20F014
:10B5B000807000F18070086570BD000000002040C0
:10B5C000500000200392010007B59DF805300122CC
:10B5D0009A40511E009A10689DF8042001FA02F268
:10B5E0009043029A0A409DF804309A401043009A12
:10B5F00010600EBD00B501E000F012F8034880694C
:10B60000C0F300400028F7D100BD0000000040A0BA
:10B6100020F0FF01014AD16070470000000040A007
:10B6200000B503E04FF48070FFF7F2FF00F060F820
:10B630000328F7D100BD000070B505460E4614463C
:10B64000E01C20F0030084B200F088FDFFF7D2FF79
:10B650000F480660A910406861F30D000C4948606E
:10B660000846406864F31F4048600846806820F040
:10B670000300801C88600846C06820F4803000F514
:10B680008030C86000F0C2FEFFF7B4FF70BD00005C
:10B69000000040A070B505460E461446E01C20F0A0
:10B6A000030084B200F05AFDFFF7A4FF0F480660C4
:10B6B000A910406861F30D000C49486008464068D5
:10B6C00064F31F4048600846806820F00300C01CF7
:10B6D00088600846C06820F4803000F58030C8607B
:10B6E00000F094FEFFF786FF70BD0000000040A050
:10B6F0000248406AC0F3410070470000000040A0CB
:10B700000248034908600349086070470048E8019F
:10B710001C0000201800002010B5FDF747F9044672
:10B720002CB90E480E4908600E49086014E0012C3F
:10B7300005D10D480A4908600A4908600CE0022C4E
:10B7400005D10A48064908600649086004E0034834
:10B75000034908600349086010BD00000048E80183
:10B76000180000201C000020006CDC020090D003B8
:10B7700010B52448406A20F0FF0040F03F00214906
:10B78000486200204FF08141486500BF1D48C43029
:10B79000006820F4004000F500401A49C1F8C400D8
:10B7A00000BF40F2EF301849886100BF00F02AFA6C
:10B7B00000F080F8FEF7BEF80020FCF773FDFFF7FD
:10B7C0009FFF06200721082803D2820002F1814250
:10B7D000116600BF4FF04040416A41F002014162F2
:10B7E0000A48416A41F0020141620948416A41F058
:10B7F000020141620748416A41F002014162FFF7DC
:10B8000039FE10BD00002040000030A0000100C043
:10B81000000200C0000300C0012817D124490968B4
:10B8200021F00201891C224AB03AC2F8B010204926
:10B83000096821F00101491CC2F8B0101146D1F885
:10B84000B01021F00201C2F8B0102FE0B8B91849C9
:10B85000096821F00201891C154AB03AC2F8B010FB
:10B860001349096821F00101491CC2F8B0101146C2
:10B87000D1F8B01021F00101C2F8B01016E00C4967
:10B88000096821F00201891C094AB03AC2F8B010D7
:10B890000749096821F00101491CC2F8B01011469E
:10B8A000D1F8B01021F00201C2F8B01070470000CA
:10B8B000B000204070B588B00025002400BFCC48FF
:10B8C0000068C0F30316CB48C06A0490049820F0C7
:10B8D0000300801C0490049820F004000490049855
:10B8E00020F0700050300490049820F4407000F56F
:10B8F00000700490049820F480600490049820F074
:10B90000E06000F1C0600490049820F4405000F51D
:10B9100040500490049820F440400490049820F48F
:10B9200080100490049820F4001000F5001004909A
:10B93000B0480499C162006B0390039820F0006046
:10B9400000F100600390039820F010000390A948D4
:10B9500003990163A7488038D0F89C0020F4406028
:10B96000A4491C310860022E0AD1A2484430006864
:10B9700020F00C00001D9F498039C1F8C40009E087
:10B980009C484430006820F00C000C309949803904
:10B99000C1F8C40000F0FCFB974988420BD19548E0
:10B9A0001C30006820F4407000F5807091498039A7
:10B9B000C1F89C000AE08F481C30006820F44070F9
:10B9C00000F540708B498039C1F89C0089484430AB
:10B9D000006820F0405000F1405086498039C1F89D
:10B9E000C4000846406B6FF30A0048630846406B8A
:10B9F00020F0E06048630846406B20F04050486308
:10BA00007C48006A0290029820F007000290029899
:10BA100020F0080008300290029820F07000029098
:10BA2000029820F080000290029820F4E06000F577
:10BA3000C0600290029820F4006000F5006002905F
:10BA4000029820F4E04000F5A0400290029820F413
:10BA5000004000F500400290029820F4403002902F
:10BA6000029820F480200290029820F4002000F533
:10BA700000200290029820F4700000F5E00002908F
:10BA8000029820F0007000F100700290029820F0FF
:10BA9000406000F180600290029820F0405000F178
:10BAA00040500290029820F0404002905148029984
:10BAB0000162406A0190019820F00700801C01900B
:10BAC000019820F0080008300190019820F07000E3
:10BAD00070300190019820F0800080300190019832
:10BAE00020F4E06000F540700190019820F40060BF
:10BAF00000F500600190019820F4E04000F540500E
:10BB00000190019820F4004000F500400190019858
:10BB100020F440300190019820F480200190019899
:10BB200020F4002000F500200190019820F470001E
:10BB300000F540000190019820F0007000F10070C5
:10BB40000190019820F0406000F180600190019820
:10BB500020F0405000F140500190019820F040400A
:10BB6000019024480199416222484430006820F441
:10BB7000807000F580701F498039C1F8C4001D48ED
:10BB80004430006820F4004000F50040C1F8C400D3
:10BB90000120FFF741FE032500240FE004EB4400E1
:10BBA000164901EB8000D0E900128068CDE905124A
:10BBB000079005A807C8FFF707FD641CAC42EDD34A
:10BBC0000F2500240FE004EB44000D4901EB800237
:10BBD000D2E900109268CDE90602059105A807C8D0
:10BBE000FFF7F2FC641CAC42EDD308B070BD00005E
:10BBF0009000804080002040C8651400B8E000003C
:10BC0000DCE000001B48406A20F0FF003F3019498B
:10BC1000486240F291111748406A61F31940154992
:10BC200048624FF08140806840F080004FF08141D1
:10BC300088601048406A20F4006000F500600D49FB
:10BC400048620846C06B20F4005000F50050C863FD
:10BC50000846006A20F0005000F1005008624FF0E2
:10BC60008140C06B20F4403040F480304FF081417F
:10BC7000C86370470000204010B501200449C86027
:10BC80000448006818B1034801680020884710BDC7
:10BC9000000070A0A006002010B501200449C86073
:10BCA0000448806818B1034881680120884710BDA6
:10BCB000000080A0A006002010B501200449C86043
:10BCC0000448006918B1034801690220884710BD83
:10BCD0000000F0A0A006002010B501200449C860B3
:10BCE0000448806918B1034881690320884710BD62
:10BCF0000000F4A0A006002010B501200449C8608F
:10BD00000448006A18B10348016A0420884710BD3E
:10BD10000000F8A0A00600200FB4054B10B503A941
:10BD2000044A029800F032F810BC5DF814FB0000E1
:10BD3000D7C20000CC000020002807DB00F01F0263
:10BD400001219140024A430942F823107047000044
:10BD500080E200E0002809DB00F01F020121914091
:10BD60004209920002F1E022C2F80011704702E09D
:10BD700008C8121F08C1002AFAD170477047002076
:10BD800001E001C1121F002AFBD170472DE9FF4FCE
:10BD90008DB09B460F460446002606E025280BD0B2
:10BDA0005A460F999047641C761C20780028F5D1DC
:10BDB00011B03046BDE8F08F0025A8460122984911
:10BDC00000E0054314F8013F203B02FA03F008426B
:10BDD000F7D120782E2817D114F8010F45F004056B
:10BDE0002A280ED06FF02F022078A0F13001092907
:10BDF0000AD808EB880102EB410100EB0108641C42
:10BE0000F2E757F8048B641C20786C280DD004DC12
:10BE10004C2812D06A2811D104E074280DD07A2859
:10BE20000CD10AE045F4001507E0617845F480156F
:10BE3000814202D1641C05F58015641C2278692AB0
:10BE400045D008DC002AB3D0582A69D0632A10D024
:10BE5000642A08D13BE0702A67D0732A13D0752A70
:10BE60005CD0782A5CD010465A460F999047761CD1
:10BE7000D3E017F8040B8DF8000000208DF80100C6
:10BE8000E946012003E057F8049B4FF0FF306907B3
:10BE90004FF0000501D40AE06D1C45450DDA8542DE
:10BEA000FADB19F805100029F6D106E06D1C854271
:10BEB000FCDB19F805100029F8D12E4404E019F82C
:10BEC000010B5A460F9990476D1EF8D2A5E00A2043
:10BED0000021CDE90801C5F3025002280DD001CFA1
:10BEE000C117031E71F100030DDA4FF0000CD0EB07
:10BEF0000C006CEB01012D2308E0FF1D27F0070764
:10BF0000F7E80201EDE72B0504D52B238DF8283047
:10BF100001233BE0EB0739D02023F7E70A2000E0BC
:10BF200010200021CDE9080107E01020002145F094
:10BF30000405CDE908014FF00808C5F302500228B6
:10BF40000FD001CF00214FF0000A2B071FD5702A18
:10BF50000DD0DDE908C38CF0100C5CEA030C0CD0AA
:10BF600015E0FF1D27F00707F7E80201EBE7402285
:10BF70008DF828204FF0010A0BE050EA010306D0AB
:10BF800030238DF828308DF8292002239A46582A2C
:10BF900004D024A20DF120090B9209E026A2F9E7B2
:10BFA000DDE90823FCF71AF90B9B9B5C09F8013DBE
:10BFB00050EA0102F4D1ADEB090020300890680787
:10BFC00001D44FF001080899884502DDA8EB010073
:10BFD00000E000208046002506E00AA85A46405DA1
:10BFE0000F9990476D1C761C5545F6DB04E0302018
:10BFF0005A460F999047761CB8F10001A8F1010844
:10C00000F5DC05E019F8010B5A460F999047761CAC
:10C010000899481E08900029F4DC641CC5E600005D
:10C02000092801003031323334353637383961620E
:10C0300063646566000000003031323334353637D2
:10C040003839414243444546000000003EB50446AD
:10C0500019481A490860FF20888000200881C8809C
:10C0600017490870174908801748184908607F2049
:10C07000888000200881C880ADF8044003208DF836
:10C08000060000208DF809008DF8080000908DF85A
:10C09000070005208DF80A000D4A6946002000F0CF
:10C0A000A7FF05460DB128463EBD012209490020E3
:10C0B00001F00EF90020F7E7200500200805002018
:10C0C000200000202200002020060020140500206F
:10C0D00015C500002400002010B5002000F010F865
:10C0E00010BD10B5012000F00BF810BD10B50220F6
:10C0F00000F006F810BD10B5032000F001F810BDE7
:10C1000070B504460B4850F824506E682E6206F055
:10C11000010018B1686A20F001006862064850F812
:10C12000240028B1044850F8242031462046904786
:10C1300070BD000060E300001C0A0020102801D33D
:10C14000192800D970474FF0814149680122824087
:10C1500011434FF08142516000BFF3E70648006889
:10C16000C0F3080000B1704772B604480068401C74
:10C170000249086000BFF6E704ED00E0540000202B
:10C1800002488068C0F3002070470000000030A023
:10C190000148806B70470000000030A010B50446D5
:10C1A000FFF7F6FFA0F59B10853858B1A0F5803059
:10C1B000433830B1B0F5A06F0DD00C49084490B9A8
:10C1C0000AE000BF4FF40051204600F011F808B11A
:10C1D000012010BD07E000BF0021204600F008F854
:10C1E00008B10120F5E700BF0020F2E700FBFEFFE9
:10C1F00070B505460C46260BFFF7C2FF08B10320B9
:10C2000070BD032E01D90120FAE7482007490860D4
:10C21000084644604561064848640120886000BFC4
:10C22000FFF7AEFF0028FBD100BFE9E7000030A018
:10C23000544241520188044A116241885162818806
:10C240009162C188D1627047000030A02DE9FC479F
:10C25000FFF79EFF85B2FCF7A9FB824646F2C85065
:10C26000854205D103261E274FF028084FF06409A8
:10C2700046F2C800854204D103261427B8464FF081
:10C28000640946F28500854205D103261E274FF03A
:10C2900028084FF064090AF10200040106FB04F0CB
:10C2A000801C80B2ADF8000007FB04F0801C80B257
:10C2B000ADF8020008FB04F0801C80B2ADF8040069
:10C2C00009FB04F0801C80B2ADF806006846FFF759
:10C2D000B1FFBDE8FC8770B504460D46204601F06D
:10C2E000B5F80A2C02D10D2001F0B0F8204670BD3F
:10C2F0002DE9F04105460F461646012000FA05F4E7
:10C3000017B98007C46006E04FF0804084600021C8
:10C31000284600F0E5F80020154941F83500062EC2
:10C320001DD2DFE806F01D03080D12174FF0804004
:10C330004462C46118E04FF080400462C46113E0BD
:10C340004FF08040046284610EE04FF08040446210
:10C35000846109E04FF080408462846104E000BFA2
:10C360004FF08040446100BF00BFBDE8F081000095
:10C370002C0A002010B50446002201212046FFF7B8
:10C38000B7FF10BD2DE9F04100240125A80747683B
:10C3900000BF11E007EA050060B1094850F83460B9
:10C3A0004FF0804005632EB1054800EBC4004168A2
:10C3B0002046B047641C6D00202CEBD3BDE8F08113
:10C3C0002C0A0020012181404FF0804251607047CB
:10C3D00001464FF08040006801228A40104008B1B9
:10C3E000012070470020FCE70146012303FA01F019
:10C3F0009B071B6803EA00021AB14FF080435860A4
:10C4000002E04FF080431860704700000848006861
:10C41000C0F3080000B1704706480068401E054997
:10C4200008600846006800B962B600BFF3E7000084
:10C4300004ED00E0540000201CB50120FBF732FFA2
:10C44000FCF7E4FA2320FFF701FEFCF79BF8FCF76A
:10C450005BFB0C48012100238022CDE900100AA1DA
:10C460000C4801F04DFC0C48012100238022CDE94D
:10C4700000100AA10C4801F043FC01F0BFF900BF15
:10C48000FEE70000000000204C4544305F746173FB
:10C490006B000000F58A0000040000204C697374F2
:10C4A0005F7461736B000000458B0000F0B52028BD
:10C4B00001D2072900D9F0BDC608084F07EB860353
:10C4C0004607F40E0F2606FA04F51A68AA4301FA85
:10C4D00004F632431A6000BFEDE700001000804010
:10C4E000F0B5202801D2072900D9F0BDC608084FB1
:10C4F00007EB86034607F40E0F2606FA04F51A68C2
:10C50000AA4301FA04F632431A6000BFEDE70000C7
:10C51000200080402DE9F0410546884605F00100E5
:10C5200058B32848008928490988084425490881C2
:10C5300000202549088023480089C4B22148C088CA
:10C54000C6B2204800891F49C988884203D100200B
:10C550001E49087011E0B44203D8301B1A49088004
:10C5600003E0C4F580701849088016480068011976
:10C5700015480288002000F0ADFF05F00200F0B180
:10C580001348C08812490989401A1149898800EA6C
:10C5900001077F2F0EDA0F4801780D48C0880C4A3A
:10C5A000928810400A4A126811540948C088401CF9
:10C5B0000749C88001220749002000F089FEBDE834
:10C5C000F08100000805002022000020200000204B
:10C5D00014050020240000202DE9F04105460E46F8
:10C5E0001C4807681C480068001D00F0D3FF50B9C4
:10C5F0001948006890F82C100120884017490968F4
:10C60000814316480160681C38B936B11248016888
:10C61000091D134801F00EF81AE07C190E48006855
:10C620004460BC4207D20C480168091D0D480068EF
:10C6300000F0E6FF0CE008480168091D0A480068A0
:10C6400000F0DEFF09480068844201D20748046018
:10C65000BDE8F0816C000020580000207000002030
:10C66000E00B0020600000205C000020880000201B
:10C6700010B5044600F0EAFF24480068401C234936
:10C6800008602348006840B92148046008460068F3
:10C6900001280DD100F0B0F90AE01E48006838B951
:10C6A0001B480068C06AE16A884201D818480460E3
:10C6B00019480068401C1849086008460068606412
:10C6C00094F82C1001208840144909680843134944
:10C6D0000860E16A01EB8101114A02EB8100211D32
:10C6E00000F0A8FF00F0C4FF0A48006868B10848DD
:10C6F0000068C06AE16A884207D24FF08050094959
:10C700000860BFF34F8FBFF36F8F10BD680000202C
:10C7100058000020740000208400002070000020D9
:10C720002C0B002004ED00E010B500F08FFF0C484A
:10C73000006890B90B4800F053FF0B4800F050FF21
:10C7400008480A49086008480949086000220C2185
:10C750000A2001F0F9F80249086000F089FF10BDD5
:10C760009C000020F40B0020080C00209400002006
:10C770009800002010B516E000F068FF0C48C06873
:10C78000C468201D00F006FF0A480068401E0949E1
:10C79000086009480068401E0749086000F068FF0B
:10C7A000204600F055F8044800680028E4D110BD88
:10C7B000CC0B0020680000206400002070B5044607
:10C7C0000D46206C70B1216CE0680144E160D4E951
:10C7D0000210884201D32168E1602846226CE1689A
:10C7E000FBF7D8FC70BD2DE9F04104460F46154615
:10C7F0004FF00008A66B206C28B37DB93946226C37
:10C800006068FBF7C7FC216C606808446060D4E98D
:10C810000101884217D32068606014E03946226C19
:10C82000E068FBF7B7FC216CE068411AE160216821
:10C83000E068884203D2216CA068411AE160022DB1
:10C8400001D106B1761E701CA0634046BDE8F081A0
:10C8500010B50446206B00F01BFF204600F018FFC7
:10C8600010BD00000146084A126812680AB9012288
:10C8700000E000220A600A6822B9034A1268D268FE
:10C88000106800E0002070479400002030B54FF49D
:10C89000A043174800F007042CB1C01D20F007008A
:10C8A000134C041B1B1B0246124C22600024114D2A
:10C8B0006C60D018083820F007000F4C206000246E
:10C8C0000D4D2D686C600C4D2D682C601146441A7E
:10C8D0004C60094C24680C60084D4C682C60084D75
:10C8E0004C682C604FF00044064D2C6030BD0000B9
:10C8F0001C0C0020A8000020B0000020B800002080
:10C90000B4000020C400002000BFFFF733FF074839
:10C910000068012807D94FF0805005490860BFF32F
:10C920004F8FBFF36F8F00F049FEEEE72C0B002016
:10C9300004ED00E02DE9F04106460D461746984605
:10C94000069C0DB9246000E02760E66325640121A0
:10C95000204601F013F884F84C80BDE8F0812DE901
:10C96000F05F81460E4617469A46DDF828800C9CFB
:10C97000B900A522206BFBF71FFC781E216B01EB91
:10C98000800B2BF0070B86B1002507E0715D04F1E9
:10C9900034004155705D00B902E06D1C102DF5D3D7
:10C9A00000BF00214320015502E0002084F834003C
:10C9B000B8F1050F01D34FF00408C4F82C80201DF6
:10C9C00000F01BFE04F1180000F017FE2461C8F10E
:10C9D0000500A06164620020E06484F850005246C3
:10C9E0004946584600F0DAFA20600B9808B10B98D7
:10C9F0000460BDE8F09F000010B5002407E004EBE0
:10CA000084010F4A02EB810000F0EAFD641C052C52
:10CA1000F5D30C4800F0E4FD0B4800F0E1FD0B48B5
:10CA200000F0DEFD0A4800F0DBFD0A4800F0D8FD0A
:10CA300004480949086004480849086010BD00001E
:10CA40002C0B0020900B0020A40B0020B80B002022
:10CA5000CC0B0020E00B00205C00002060000020D8
:10CA600010B50146164800E0006803688B42FBD30E
:10CA70000246436813448B4204D143684C68234404
:10CA8000436001460A464B6813440468A34211D12F
:10CA90000C4C03682468A34208D04B68046864689F
:10CAA00023444B6003681B680B6005E0054B1B6863
:10CAB0000B6001E003680B60884200D0016010BD8C
:10CAC000A8000020B00000202DE9F04104460D46EA
:10CAD00016461F464FF0000865602461B5420CD829
:10CAE000F01BA169884202D34FF0010811E0211D1B
:10CAF0000948006800F084FD0BE0BE4204D2BD424C
:10CB000002D34FF0010804E0211D0448006800F042
:10CB100077FD4046BDE8F081980000209400002099
:10CB200070B5054600F092FDA86B08B9012400E03D
:10CB3000002400F09DFD204670BD70B5054600F054
:10CB400085FDA86BE96B884201D1012400E0002437
:10CB500000F08EFD204670BDF8B505460E4614481F
:10CB60000068C068C468201D00F014FD94F8280017
:10CB700000F0040088B1A06941192B4632462046D6
:10CB8000FFF7A2FF78B1002003462A460146009035
:10CB9000204601F05BFA074605E094F8280020F0F3
:10CBA000010084F828002046216A8847F8BD00006B
:10CBB0009400002070B586B06DE0039800286ADB11
:10CBC000059C606908B9012000E0002010B9201D13
:10CBD00000F0E0FC02A800F0BFF8054603980A2820
:10CBE00057D2DFE800F00905072D354606082E3636
:10CBF00000BF00BF00BF00BF94F8280040F0010054
:10CC000084F828000498A269811803462A46204621
:10CC1000FFF75AFF98B12046216A884794F8280008
:10CC200000F0040058B1002000900498A169421857
:10CC300000231946204601F009FA064600BF29E004
:10CC400000BF94F8280020F0010084F8280021E0BB
:10CC500000BF94F8280040F0010084F828000498F0
:10CC6000A061A06941192B462A462046FFF72CFFF8
:10CC700010E094F8280000F0020018B9204600F0F7
:10CC800007FD05E094F8280020F0010084F8280052
:10CC900000E000BF00BF002203A90448006800F0C4
:10CCA0007FFF002889D106B070BD00009C000020E5
:10CCB000F8B505460C4600F0D9FD684600F04CF882
:10CCC0000646009820BB44B9B54206D801F02CF9BD
:10CCD00031462846FFF740FF1CE03CB10E48006893
:10CCE000006808B9012000E000200446A91B224684
:10CCF0000A48006800F00CFD01F016F950B94FF039
:10CD0000805007490860BFF34F8FBFF36F8F01E07A
:10CD100001F00AF9F8BD0000980000209C000020F6
:10CD200004ED00E00A490968096809B9012100E039
:10CD3000002121B14FF0FF31064A116006E004499D
:10CD40000968C968C868034A4168116070470000F3
:10CD50005C0000208800002070B5044601F010F847
:10CD6000054607480068854204D200F00BF8012010
:10CD7000206001E00020206001480560284670BD69
:10CD8000A40000202DE9F84328E01E480068C06890
:10CD900005681C480068C068C468201D00F0FAFBE4
:10CDA0002046216A884794F8280000F00400A8B1C2
:10CDB000A0694619AE4207D966602461211D114859
:10CDC000006800F01DFC09E0002003462A460146E9
:10CDD0000090204601F03AF9804600BF09480068FB
:10CDE000006808B9012000E000200028CDD00548E7
:10CDF0000768054800680349086003480760BDE804
:10CE0000F8830000940000209800002000BFBF209D
:10CE100080F31188BFF34F8FBFF36F8F00BF00BF48
:10CE2000FEE708B500BF6846FFF71CFD0446204634
:10CE30000099FFF73DFFFFF7BDFEF4E770B504462C
:10CE400000F004FC94F9455010E0606A08B9012034
:10CE500000E0002038B904F1240001F025F818B1F1
:10CE600000F0A2FC00E003E0681E45B2002DECDCFF
:10CE700000BFFF2084F8450000F0FAFB00F0E6FB5D
:10CE800094F9445010E0206908B9012000E0002026
:10CE900048B904F1100001F007F808B100F084FC73
:10CEA000681E45B200E001E0002DECDC00BFFF2071
:10CEB00084F8440000F0DCFB70BD00002DE9F04177
:10CEC00005464FF0000800F0D1FC2E48006808B974
:10CED000FFF7DCFC2C480068284000284CD145B105
:10CEE000083505F0070020B105F00700C0F1080083
:10CEF0000544002D40D02548006885423CD8244E8A
:10CF00003046046801E0264624686068A84202D2E0
:10CF100020680028F7D11B48006884422CD0306874
:10CF200000F10808206830606068401B102807D9AD
:10CF300067196068401B786065603846FFF790FDB0
:10CF4000124960680968081A1049086008460068B4
:10CF500010490968884203D20C4800680D490860EE
:10CF600009496068096808436060002020600A4839
:10CF70000068401C0849086000F0D6FF4046BDE844
:10CF8000F0810000B0000020C4000020B4000020A8
:10CF9000A8000020B8000020BC000020001F4FF0B7
:10CFA00080730360001F21F001030360001F034B27
:10CFB0000360143802602038704700000DCE000076
:10CFC00010B5024800F0ACF810BD000090E1000080
:10CFD00010B5024800F0A4F810BD0000A0E1000068
:10CFE00010B5024800F09CF810BD0000B0E1000050
:10CFF0002DE9F05F81460D469246B9F1030F00D24C
:10D0000015B90120BDE8F09F424800EB09104668C1
:10D0100096F8260000F0010008B10220F2E73D4832
:10D0200000EB0918D8F80040C6F800A02868706026
:10D030000020306286F8240086F8250098F9080060
:10D04000FEF77AFE98F8091001F11000FFF776F864
:10D050000020A0600620A06000206060A87900F099
:10D06000030747F08000E06028792060A88800125C
:10D070006060E760E879012801D147F00407287A69
:10D0800000F0020008B147F00807287A00F001001C
:10D0900008B947F01007287A00F0040008B147F0FB
:10D0A0002007E760D4F800B000202061A06320646E
:10D0B0006064E06260620320E063A063042060605B
:10D0C00098F80C0030B10120A060606840F00100C9
:10D0D000606001E04120A06098F90800A97A00286A
:10D0E00004DB4A07130E0C4A135408E04A074FEAC0
:10D0F000126C0A4A00F00F031B1F02F803C000BFA6
:10D1000098F90800FEF726FE032086F82600002086
:10D1100078E7000090E1000000E400E018ED00E096
:10D120002DE9FC5F80460027D8F80050A86800F081
:10D130000F09D8F80440E86B00F00100002848D03F
:10D140000120E86300202864A66B7EB1D4F830B0DB
:10D15000824607E004F1280010F80A000BF8010BE2
:10D160000AF1010AB245F5D30020A063666B4EB305
:10D17000042E09D2A66300206063E06A206304F1F4
:10D18000280028626E621AE006F0030030B9002021
:10D190006063A063E06A28626E6210E006F003003C
:10D1A00060630020A063E06A206326F00301E06A68
:10D1B0000844E062206B286226F0030068620120C8
:10D1C000286406E02169A161002084F8250047F069
:10D1D0000207E86B00F00200022808D1E863002093
:10D1E00068646169E16184F8240047F0010709F08F
:10D1F0000100002863D1B9F1060F03D1404600F0C9
:10D20000F3F8074398F80B00A8BBB9F1040F02D05C
:10D21000B9F10C0F26D11FE098F80C0038B14FF48B
:10D2200080700090D4E900210098904714E02868AD
:10D23000C2B2A369581CA061A068C254A169206948
:10D24000814209D1686820F001006860002084F8FC
:10D25000250047F0020704E0686900F0010000289B
:10D26000DAD100BFB9F10C0F05D1A1692069814263
:10D2700001D047F0080798F80A0000BBB9F1020F87
:10D280001DD11020019005E0E269501CE061E068CA
:10D29000805C28600198411E019118B16169E069C4
:10D2A0008142F1D16169E069814208D1686820F06A
:10D2B00002006860002084F8240047F0010720681D
:10D2C00020B11FB13846D4E900219047BDE8FC9F4A
:10D2D0002DE9F04781460F461546B9F1030F02D3F9
:10D2E0000120BDE8F0871FB115B1B5F5803F01D32E
:10D2F0000120F6E73B4800EB0918D8F80440D8F8BD
:10D30000006094F8260000F00300032801D00420F8
:10D31000E7E794F82500012801D10320E1E7012087
:10D3200084F82500256100202062A7600021A1610A
:10D3300098F80B00002844D007F0030010BB05F05C
:10D34000030028B900206063A0633762756235E08E
:10D35000042D08D200206063A563276304F1280030
:10D36000306275622AE005F0030060630020A0636C
:10D3700025F003003844E0622763376225F003009C
:10D3800070621BE0042D08D800206063A56327634A
:10D3900004F128003062756210E007F00300C0F16C
:10D3A0000400A063A06B281A60632763A06B384455
:10D3B000E06204F128003062A06B706201203064EA
:10D3C00007E0FEF7CBFE706840F001007060FFF7E9
:10D3D0001DF8206820B900BF94F825000028FBD173
:10D3E00000207EE790E1000010B5034600201C6895
:10D3F00062695C6804F1200102F0020434B10C7827
:10D4000024F0080408340C7040F0040002F0040416
:10D4100034B10C7824F0400440340C7040F04000EB
:10D4200002F0100434B10C7824F0100410340C70A5
:10D4300040F0100002F0080434B10C7824F020040D
:10D4400020340C7040F0200010BD00002DE9F041A8
:10D45000054600BF1B48C0881A490989401AC6B250
:10D46000C6F1FF045CB117490968164AD288D2B2E6
:10D470008D541448C088401C1249C88007E01248E7
:10D480000068C0F3080008B1BDE8F081E2E70F488A
:10D490000078A8B90B48C0880A49098988420FD08A
:10D4A00008480089C7B20120094908800749087067
:10D4B00004480068C11906480288002000F00AF8F4
:10D4C00000BFE1E70805002004ED00E02000002097
:10D4D000220000202DE9F047814688461646B9F122
:10D4E000030F02D30120BDE8F087B8F1000F03D08D
:10D4F00016B1B6F5803F01D30120F4E7244800EBD4
:10D5000009177C683D6894F8260000F003000328A2
:10D5100001D00420E7E794F8240008B10320E2E7F3
:10D52000012084F82400C4F80C8066610021E161C8
:10D53000B87A28B1C5F82880EE62012068641EE040
:10D540003D68686900F0200088B14FF0100A05E0DE
:10D55000E269501CE061E068805C2860BAF100007C
:10D56000AAF1010A03D0E16960698142F0D1FEF7B6
:10D57000F5FD686840F002006860FEF747FF20682C
:10D5800020B900BF94F824000028FBD10020AAE7AE
:10D5900090E1000001460A69D1E901309860D1E9C3
:10D5A000010358605068884201D1886850600020AB
:10D5B00008611068401E10601068704710B506487A
:10D5C000006806490968884205D004480068024995
:10D5D000086000F089F810BD1C0000201800002031
:10D5E00000F1080141604FF0FF31816000F1080156
:10D5F000C160016100210160704700210161704735
:10D6000010B502460B685C1C0CB9106907E002F10A
:10D61000080000E04068446824689C42FAD94468E5
:10D620004C604C68A160886041600A611468641CA9
:10D63000146010BD42684A6093688B6093685960BB
:10D640009160086103685B1C0360704700BFBF20E6
:10D6500080F31188BFF34F8FBFF36F8F00BF034874
:10D660000068401C0149086070470000C8000020A5
:10D6700006480068401E054908600846006820B951
:10D68000002080F3118800BF00BF7047C800002051
:10D6900070B506463546FEB1083D2C460F49606818
:10D6A00009680840C0B12068B0B90C4960680968D1
:10D6B0008843606000F0DAF8094960680968084446
:10D6C000074908602046FFF7CBF906480068401C70
:10D6D0000449086000F028FC70BD0000C400002070
:10D6E000B4000020C000002000204FF0E0210861BD
:10D6F0008861064800684FF47A71B0FBF1F0401E73
:10D700004FF0E02148610720086170471C000020AD
:10D710002DE9F04105460E4617462C46FFF796FFC9
:10D7200094F94400401C10B9002084F8440094F996
:10D730004500401C10B9002084F84500FFF798FF11
:10D74000A06B28B93A46314604F1240000F042F8B3
:10D750002046FFF773FBBDE8F081000070B504467A
:10D76000002544B100F082F800212046FEF734FF86
:10D7700000F0DAFB05463DB94FF0805003490860E0
:10D78000BFF34F8FBFF36F8F70BD000004ED00E05B
:10D790000349096801600349096841607047000056
:10D7A000800000206C0000200120014908607047C3
:10D7B0007C00002070B505460C460548016818310C
:10D7C0002846FFF71DFF01212046FEF705FF70BD2B
:10D7D0005800002070B506460D46144606480168FC
:10D7E00018313046FFF726FF0CB14FF0FF352146C8
:10D7F0002846FEF7F1FE70BD580000201CB5144805
:10D8000000210B468022CDE9001012A1134800F040
:10D8100077FA0446012C02D100F0FAFB0446012CF1
:10D8200014D100BFBF2080F31188BFF34F8FBFF327
:10D830006F8F00BF4FF0FF30094908600120094990
:10D84000086000200849086000F048F81CBD00008E
:10D850008C00002049444C450000000009C900002C
:10D8600088000020740000206C000020024800683E
:10D87000401C014908607047900000201248006871
:10D8800018B10120114908601DE000200F4908600F
:10D890000F480068B0FA80F0C0F11F0101EB81026F
:10D8A0000C4B03EB820042685268426000F10802B0
:10D8B0004368934202D14268526842604268D2682B
:10D8C000054B1A6000BF7047900000207C000020CC
:10D8D000700000202C0B0020580000200A4800682F
:10D8E00040F47F00084908600846006840F07F4027
:10D8F0000860FFF7F9FE002004490860FAF7FEFB14
:10D90000FFF7BCFFFFF782FA20ED00E0C80000201F
:10D9100010B5FDF76BFD00BFBF2080F31188BFF38A
:10D920004F8FBFF36F8F00BF00F030FA18B14FF088
:10D9300080500449086000BF002080F3118800BFB8
:10D9400010BD000004ED00E02DE9F84305460E4649
:10D95000174605FB06F909F15000FFF7AFFA044638
:10D960004CB1A04608F150083B4642463146284695
:10D970000094FEF7DFFF2046BDE8F88370B505464A
:10D980000E462C46FFF762FED4E90F12206801FB19
:10D990000200A0600020A06320686060E06B401E71
:10D9A000226C216800FB0211E160FF2084F8440032
:10D9B00084F845009EB9206908B9012000E00020E4
:10D9C000A8B904F1100000F06FFA80B14FF0805058
:10D9D00009490860BFF34F8FBFF36F8F07E004F171
:10D9E0001000FFF7FDFD04F12400FFF7F9FDFFF73C
:10D9F0003FFE012070BD000004ED00E02DE9FF4373
:10DA000083B0074688461D464FF000093C4600BFDC
:10DA1000FFF71CFEA06BE16B884201D3022D28D1D9
:10DA20002A4641462046FEF7DEFE0646606A08B9F1
:10DA3000012000E0002068B904F1240000F034FA6D
:10DA400088B14FF0805032490860BFF34F8FBFF369
:10DA50006F8F08E03EB14FF080502D490860BFF352
:10DA60004F8FBFF36F8FFFF703FE012007B0BDE8B4
:10DA7000F083059818B9FFF7FBFD0020F6E7B9F130
:10DA8000000F04D101A8FFF783FE4FF00109FFF753
:10DA9000EFFDFFF7EBFEFFF7D9FD94F94400401CC2
:10DAA00010B9002084F8440094F94500401C10B9D6
:10DAB000002084F84500FFF7DBFD05A901A800F070
:10DAC000F1F8F0B92046FFF738F8A0B104F11000E2
:10DAD0000599FFF76FFE2046FFF7B0F900F024FA32
